{
  "_format": "hh-sol-artifact-1",
  "contractName": "OrderAPIConsumer",
  "sourceName": "contracts/chainlink/OrderAPIConsumer.sol",
  "abi": [
    {
      "inputs": [
        {
          "internalType": "address",
          "name": "link",
          "type": "address"
        },
        {
          "internalType": "address",
          "name": "oracle",
          "type": "address"
        },
        {
          "internalType": "address",
          "name": "authorizedRequestor",
          "type": "address"
        },
        {
          "internalType": "address",
          "name": "callback",
          "type": "address"
        },
        {
          "internalType": "string",
          "name": "jobId",
          "type": "string"
        },
        {
          "internalType": "uint256",
          "name": "fee",
          "type": "uint256"
        }
      ],
      "stateMutability": "nonpayable",
      "type": "constructor"
    },
    {
      "anonymous": false,
      "inputs": [
        {
          "indexed": false,
          "internalType": "address",
          "name": "oldRequestor",
          "type": "address"
        },
        {
          "indexed": false,
          "internalType": "address",
          "name": "newRequestor",
          "type": "address"
        }
      ],
      "name": "AuthorizedRequestorUpdated",
      "type": "event"
    },
    {
      "anonymous": false,
      "inputs": [
        {
          "indexed": false,
          "internalType": "address",
          "name": "previous",
          "type": "address"
        },
        {
          "indexed": false,
          "internalType": "address",
          "name": "current",
          "type": "address"
        }
      ],
      "name": "CallbackUpdated",
      "type": "event"
    },
    {
      "anonymous": false,
      "inputs": [
        {
          "indexed": true,
          "internalType": "bytes32",
          "name": "id",
          "type": "bytes32"
        }
      ],
      "name": "ChainlinkCancelled",
      "type": "event"
    },
    {
      "anonymous": false,
      "inputs": [
        {
          "indexed": true,
          "internalType": "bytes32",
          "name": "id",
          "type": "bytes32"
        }
      ],
      "name": "ChainlinkFulfilled",
      "type": "event"
    },
    {
      "anonymous": false,
      "inputs": [
        {
          "indexed": true,
          "internalType": "bytes32",
          "name": "id",
          "type": "bytes32"
        }
      ],
      "name": "ChainlinkRequested",
      "type": "event"
    },
    {
      "anonymous": false,
      "inputs": [
        {
          "indexed": false,
          "internalType": "uint256",
          "name": "previous",
          "type": "uint256"
        },
        {
          "indexed": false,
          "internalType": "uint256",
          "name": "current",
          "type": "uint256"
        }
      ],
      "name": "FeeUpdated",
      "type": "event"
    },
    {
      "anonymous": false,
      "inputs": [
        {
          "indexed": false,
          "internalType": "bytes32",
          "name": "previous",
          "type": "bytes32"
        },
        {
          "indexed": false,
          "internalType": "bytes32",
          "name": "current",
          "type": "bytes32"
        }
      ],
      "name": "JobIdUpdated",
      "type": "event"
    },
    {
      "anonymous": false,
      "inputs": [
        {
          "indexed": true,
          "internalType": "address",
          "name": "previousOwner",
          "type": "address"
        },
        {
          "indexed": true,
          "internalType": "address",
          "name": "newOwner",
          "type": "address"
        }
      ],
      "name": "OwnershipTransferred",
      "type": "event"
    },
    {
      "anonymous": false,
      "inputs": [
        {
          "indexed": false,
          "internalType": "bytes32",
          "name": "requestId",
          "type": "bytes32"
        },
        {
          "indexed": false,
          "internalType": "bytes32",
          "name": "result",
          "type": "bytes32"
        }
      ],
      "name": "ResponseFulfilled",
      "type": "event"
    },
    {
      "inputs": [
        {
          "internalType": "address",
          "name": "requestor",
          "type": "address"
        },
        {
          "internalType": "uint256",
          "name": "tokenId",
          "type": "uint256"
        },
        {
          "internalType": "uint256",
          "name": "recipeId",
          "type": "uint256"
        }
      ],
      "name": "executeRequest",
      "outputs": [
        {
          "internalType": "bytes32",
          "name": "requestId",
          "type": "bytes32"
        }
      ],
      "stateMutability": "nonpayable",
      "type": "function"
    },
    {
      "inputs": [
        {
          "internalType": "bytes32",
          "name": "requestId",
          "type": "bytes32"
        },
        {
          "internalType": "bytes32",
          "name": "result",
          "type": "bytes32"
        }
      ],
      "name": "fulfillResponse",
      "outputs": [],
      "stateMutability": "nonpayable",
      "type": "function"
    },
    {
      "inputs": [],
      "name": "owner",
      "outputs": [
        {
          "internalType": "address",
          "name": "",
          "type": "address"
        }
      ],
      "stateMutability": "view",
      "type": "function"
    },
    {
      "inputs": [],
      "name": "renounceOwnership",
      "outputs": [],
      "stateMutability": "nonpayable",
      "type": "function"
    },
    {
      "inputs": [
        {
          "internalType": "address",
          "name": "requestor",
          "type": "address"
        }
      ],
      "name": "setAuthorizedRequestor",
      "outputs": [],
      "stateMutability": "nonpayable",
      "type": "function"
    },
    {
      "inputs": [
        {
          "internalType": "address",
          "name": "callback",
          "type": "address"
        }
      ],
      "name": "setCallback",
      "outputs": [],
      "stateMutability": "nonpayable",
      "type": "function"
    },
    {
      "inputs": [
        {
          "internalType": "uint256",
          "name": "fee",
          "type": "uint256"
        }
      ],
      "name": "setFee",
      "outputs": [],
      "stateMutability": "nonpayable",
      "type": "function"
    },
    {
      "inputs": [
        {
          "internalType": "string",
          "name": "jobId",
          "type": "string"
        }
      ],
      "name": "setJobId",
      "outputs": [],
      "stateMutability": "nonpayable",
      "type": "function"
    },
    {
      "inputs": [
        {
          "internalType": "address",
          "name": "newOwner",
          "type": "address"
        }
      ],
      "name": "transferOwnership",
      "outputs": [],
      "stateMutability": "nonpayable",
      "type": "function"
    },
    {
      "inputs": [],
      "name": "withdraw",
      "outputs": [],
      "stateMutability": "nonpayable",
      "type": "function"
    },
    {
      "inputs": [],
      "name": "withdrawLink",
      "outputs": [],
      "stateMutability": "nonpayable",
      "type": "function"
    }
  ],
  "bytecode": "0x608060405260016005553480156200001657600080fd5b50604051620018de380380620018de833981810160405260c08110156200003c57600080fd5b81516020830151604080850151606086015160808701805193519597949692959194919392820192846401000000008211156200007857600080fd5b9083019060208201858111156200008e57600080fd5b8251640100000000811182820188101715620000a957600080fd5b82525081516020918201929091019080838360005b83811015620000d8578181015183820152602001620000be565b50505050905090810190601f168015620001065780820380516001836020036101000a031916815260200191505b50604052602001519150600090506200011e620001cf565b600080546001600160a01b0319166001600160a01b0383169081178255604051929350917f8be0079c531659141344cd1fd0a4f28419497f9722a3daafe3b4186f6b6457e0908290a3506200017386620001d3565b6200017e85620001f5565b620001898462000217565b6001600160a01b03831615620001b557600880546001600160a01b0319166001600160a01b0385161790555b620001c082620002e1565b600a5550620003ce9350505050565b3390565b600380546001600160a01b0319166001600160a01b0392909216919091179055565b600480546001600160a01b0319166001600160a01b0392909216919091179055565b62000221620001cf565b6001600160a01b0316620002346200039b565b6001600160a01b0316146200027f576040805162461bcd60e51b81526020600482018190526024820152600080516020620018be833981519152604482015290519081900360640190fd5b600780546001600160a01b038381166001600160a01b0319831617928390556040805192821680845293909116602083015280517f47721067a48220b11a03c7681354bd94377aa98168c91d286df194ca80f9fc019281900390910190a15050565b620002eb620001cf565b6001600160a01b0316620002fe6200039b565b6001600160a01b03161462000349576040805162461bcd60e51b81526020600482018190526024820152600080516020620018be833981519152604482015290519081900360640190fd5b6009546200035782620003aa565b600981905560408051838152602081019290925280517f690f19bef5baac529692ceae4490174f730c43221452b9159c054629f2116d239281900390910190a15050565b6000546001600160a01b031690565b80516000908290620003c1575060009050620003c9565b505060208101515b919050565b6114e080620003de6000396000f3fe608060405234801561001057600080fd5b50600436106100a95760003560e01c8063715018a611610071578063715018a6146101e55780638da5cb5b146101ed5780638daa63ac146102115780638dc654a214610237578063a9b6b0c01461023f578063f2fde38b14610262576100a9565b8063129fc1c0146100ae5780632a242908146101565780633ccfd60b1461019a57806340268dc1146101a257806369fe0e2d146101c8575b600080fd5b610154600480360360208110156100c457600080fd5b8101906020810181356401000000008111156100df57600080fd5b8201836020820111156100f157600080fd5b8035906020019184600183028401116401000000008311171561011357600080fd5b91908080601f016020809104026020016040519081016040528093929190818152602001838380828437600092019190915250929550610288945050505050565b005b6101886004803603606081101561016c57600080fd5b506001600160a01b03813516906020810135906040013561033a565b60408051918252519081900360200190f35b610154610499565b610154600480360360208110156101b857600080fd5b50356001600160a01b031661052e565b610154600480360360208110156101de57600080fd5b50356105f2565b61015461069b565b6101f5610747565b604080516001600160a01b039092168252519081900360200190f35b6101546004803603602081101561022757600080fd5b50356001600160a01b0316610756565b61015461081a565b6101546004803603604081101561025557600080fd5b508035906020013561098d565b6101546004803603602081101561027857600080fd5b50356001600160a01b0316610b02565b610290610c04565b6001600160a01b03166102a1610747565b6001600160a01b0316146102ea576040805162461bcd60e51b81526020600482018190526024820152600080516020611463833981519152604482015290519081900360640190fd5b6009546102f682610c08565b600981905560408051838152602081019290925280517f690f19bef5baac529692ceae4490174f730c43221452b9159c054629f2116d239281900390910190a15050565b6007546000906001600160a01b03163314610392576040805162461bcd60e51b815260206004820152601360248201527263616c6c6572206e6f742063616c6c6261636b60681b604482015290519081900360640190fd5b61039a6113ca565b6009546103af90306302a6dac360e61b610c2a565b90506103ee604051806040016040528060078152602001666164647265737360c81b8152506103e6336001600160a01b0316610c46565b839190610d21565b610425604051806040016040528060098152602001683932b8bab2b9ba37b960b91b8152506103e6876001600160a01b0316610c46565b6040805180820190915260088152671d1bdad95b97da5960c21b602082015261045090829086610d3f565b6040805180820190915260098152681c9958da5c1957da5960ba1b602082015261047c90829085610d3f565b610490610487610d5d565b82600a54610d6c565b95945050505050565b6104a1610c04565b6001600160a01b03166104b2610747565b6001600160a01b0316146104fb576040805162461bcd60e51b81526020600482018190526024820152600080516020611463833981519152604482015290519081900360640190fd5b6040514790339082156108fc029083906000818181858888f1935050505015801561052a573d6000803e3d6000fd5b5050565b610536610c04565b6001600160a01b0316610547610747565b6001600160a01b031614610590576040805162461bcd60e51b81526020600482018190526024820152600080516020611463833981519152604482015290519081900360640190fd5b600780546001600160a01b038381166001600160a01b0319831617928390556040805192821680845293909116602083015280517f47721067a48220b11a03c7681354bd94377aa98168c91d286df194ca80f9fc019281900390910190a15050565b6105fa610c04565b6001600160a01b031661060b610747565b6001600160a01b031614610654576040805162461bcd60e51b81526020600482018190526024820152600080516020611463833981519152604482015290519081900360640190fd5b600a805490829055604080518281526020810184905281517f528d9479e9f9889a87a3c30c7f7ba537e5e59c4c85a37733b16e57c62df61302929181900390910190a15050565b6106a3610c04565b6001600160a01b03166106b4610747565b6001600160a01b0316146106fd576040805162461bcd60e51b81526020600482018190526024820152600080516020611463833981519152604482015290519081900360640190fd5b600080546040516001600160a01b03909116907f8be0079c531659141344cd1fd0a4f28419497f9722a3daafe3b4186f6b6457e0908390a3600080546001600160a01b0319169055565b6000546001600160a01b031690565b61075e610c04565b6001600160a01b031661076f610747565b6001600160a01b0316146107b8576040805162461bcd60e51b81526020600482018190526024820152600080516020611463833981519152604482015290519081900360640190fd5b600880546001600160a01b038381166001600160a01b0319831617928390556040805192821680845293909116602083015280517f9fbbcfdbdbe28811af8e5c2b698b7fee9bdbdeb6a06a2b4342aa381c75f227849281900390910190a15050565b610822610c04565b6001600160a01b0316610833610747565b6001600160a01b03161461087c576040805162461bcd60e51b81526020600482018190526024820152600080516020611463833981519152604482015290519081900360640190fd5b6000610886610f3a565b6001600160a01b03166370a08231306040518263ffffffff1660e01b815260040180826001600160a01b0316815260200191505060206040518083038186803b1580156108d257600080fd5b505afa1580156108e6573d6000803e3d6000fd5b505050506040513d60208110156108fc57600080fd5b50519050610908610f3a565b6001600160a01b031663a9059cbb33836040518363ffffffff1660e01b815260040180836001600160a01b0316815260200182815260200192505050602060405180830381600087803b15801561095e57600080fd5b505af1158015610972573d6000803e3d6000fd5b505050506040513d602081101561098857600080fd5b505050565b60008281526006602052604090205482906001600160a01b031633146109e45760405162461bcd60e51b81526004018080602001828103825260288152602001806114836028913960400191505060405180910390fd5b60008181526006602052604080822080546001600160a01b03191690555182917f7cc135e0cebb02c3480ae5d74d377283180a2601f8f644edf7987b009316c63a91a2604080518481526020810184905281517febcd8cd17b87c7afc8f2b28689a54007ab2cad548b04c4d09f10dbf298fccd39929181900390910190a16008546001600160a01b031615801590610a8c5750600854610a8c906001600160a01b0316610f49565b1561098857600854604080516302a6dac360e61b8152600481018690526024810185905290516001600160a01b039092169163a9b6b0c09160448082019260009290919082900301818387803b158015610ae557600080fd5b505af1158015610af9573d6000803e3d6000fd5b50505050505050565b610b0a610c04565b6001600160a01b0316610b1b610747565b6001600160a01b031614610b64576040805162461bcd60e51b81526020600482018190526024820152600080516020611463833981519152604482015290519081900360640190fd5b6001600160a01b038116610ba95760405162461bcd60e51b815260040180806020018281038252602681526020018061141a6026913960400191505060405180910390fd5b600080546040516001600160a01b03808516939216917f8be0079c531659141344cd1fd0a4f28419497f9722a3daafe3b4186f6b6457e091a3600080546001600160a01b0319166001600160a01b0392909216919091179055565b3390565b80516000908290610c1d575060009050610c25565b505060208101515b919050565b610c326113ca565b610c3a6113ca565b61049081868686610f4f565b606081610c6b57506040805180820190915260018152600360fc1b6020820152610c25565b8160005b8115610c8357600101600a82049150610c6f565b60608167ffffffffffffffff81118015610c9c57600080fd5b506040519080825280601f01601f191660200182016040528015610cc7576020820181803683370190505b50859350905060001982015b8315610d1857600a840660300160f81b82828060019003935081518110610cf657fe5b60200101906001600160f81b031916908160001a905350600a84049350610cd3565b50949350505050565b6080830151610d309083610f8c565b60808301516109889082610f8c565b6080830151610d4e9083610f8c565b60808301516109889082610fa3565b6004546001600160a01b031690565b6005546040805130606090811b60208084019190915260348084018690528451808503909101815260549093018452825192810192909220908601939093526000838152600690915281812080546001600160a01b0319166001600160a01b038816179055905182917fb5e6e01e79f91267dc17b4e6314d5d4d03593d2ceee0fbb452b750bd70ea5af991a26003546001600160a01b0316634000aea08584610e1487610faf565b6040518463ffffffff1660e01b815260040180846001600160a01b0316815260200183815260200180602001828103825283818151815260200191508051906020019080838360005b83811015610e75578181015183820152602001610e5d565b50505050905090810190601f168015610ea25780820380516001836020036101000a031916815260200191505b50945050505050602060405180830381600087803b158015610ec357600080fd5b505af1158015610ed7573d6000803e3d6000fd5b505050506040513d6020811015610eed57600080fd5b5051610f2a5760405162461bcd60e51b81526004018080602001828103825260238152602001806114406023913960400191505060405180910390fd5b6005805460010190559392505050565b6003546001600160a01b031690565b3b151590565b610f576113ca565b610f6785608001516101006110d3565b50509183526001600160a01b031660208301526001600160e01b031916604082015290565b610f998260038351611113565b61098882826111ed565b61052a82600083611113565b6060634042994660e01b6000808460000151856020015186604001518760600151600189608001516000015160405160240180896001600160a01b03168152602001888152602001878152602001866001600160a01b03168152602001856001600160e01b031916815260200184815260200183815260200180602001828103825283818151815260200191508051906020019080838360005b83811015611061578181015183820152602001611049565b50505050905090810190601f16801561108e5780820380516001836020036101000a031916815260200191505b5060408051601f198184030181529190526020810180516001600160e01b03166001600160e01b0319909d169c909c17909b5250989950505050505050505050919050565b6110db6113ff565b60208206156110f05760208206602003820191505b506020808301829052604080518085526000815283019091019052815b92915050565b601781116111345761112e8360e0600585901b16831761120e565b50610988565b60ff811161115e57611151836018611fe0600586901b161761120e565b5061112e83826001611226565b61ffff81116111895761117c836019611fe0600586901b161761120e565b5061112e83826002611226565b63ffffffff81116111b6576111a983601a611fe0600586901b161761120e565b5061112e83826004611226565b67ffffffffffffffff8111610988576111da83601b611fe0600586901b161761120e565b506111e783826008611226565b50505050565b6111f56113ff565b61120783846000015151848551611247565b9392505050565b6112166113ff565b61120783846000015151846112f3565b61122e6113ff565b61123f84856000015151858561133e565b949350505050565b61124f6113ff565b825182111561125d57600080fd5b84602001518285011115611287576112878561127f876020015187860161139c565b6002026113b3565b6000808651805187602083010193508088870111156112a65787860182525b505050602084015b602084106112cd5780518252601f1990930192602091820191016112ae565b51815160001960208690036101000a019081169019919091161790525083949350505050565b6112fb6113ff565b83602001518310611317576113178485602001516002026113b3565b835180516020858301018481535080851415611334576001810182525b5093949350505050565b6113466113ff565b8460200151848301111561136357611363858584016002026113b3565b60006001836101000a0390508551838682010185831982511617815250805184870111156113915783860181525b509495945050505050565b6000818311156113ad57508161110d565b50919050565b81516113bf83836110d3565b506111e783826111ed565b6040805160a0810182526000808252602082018190529181018290526060810191909152608081016113fa6113ff565b905290565b60405180604001604052806060815260200160008152509056fe4f776e61626c653a206e6577206f776e657220697320746865207a65726f2061646472657373756e61626c6520746f207472616e73666572416e6443616c6c20746f206f7261636c654f776e61626c653a2063616c6c6572206973206e6f7420746865206f776e6572536f75726365206d75737420626520746865206f7261636c65206f66207468652072657175657374a26469706673582212201d53f9b8308d74952a5e21eb3778a6381c8d85f635f73ef528618995e93a99a264736f6c634300060c00334f776e61626c653a2063616c6c6572206973206e6f7420746865206f776e6572",
  "linkReferences": {},
  "deployedLinkReferences": {}
}