{
  "_format": "hh-sol-artifact-1",
  "contractName": "OrderAPIOracle",
  "sourceName": "contracts/chainlink/OrderAPIOracle.sol",
  "abi": [
    {
      "inputs": [
        {
          "internalType": "address",
          "name": "linkTokenAddress",
          "type": "address"
        }
      ],
      "stateMutability": "nonpayable",
      "type": "constructor"
    },
    {
      "anonymous": false,
      "inputs": [
        {
          "indexed": true,
          "internalType": "bytes32",
          "name": "requestId",
          "type": "bytes32"
        }
      ],
      "name": "CancelOracleRequest",
      "type": "event"
    },
    {
      "anonymous": false,
      "inputs": [
        {
          "indexed": true,
          "internalType": "bytes32",
          "name": "specId",
          "type": "bytes32"
        },
        {
          "indexed": false,
          "internalType": "address",
          "name": "requester",
          "type": "address"
        },
        {
          "indexed": false,
          "internalType": "bytes32",
          "name": "requestId",
          "type": "bytes32"
        },
        {
          "indexed": false,
          "internalType": "uint256",
          "name": "payment",
          "type": "uint256"
        },
        {
          "indexed": false,
          "internalType": "address",
          "name": "callbackAddr",
          "type": "address"
        },
        {
          "indexed": false,
          "internalType": "bytes4",
          "name": "callbackFunctionId",
          "type": "bytes4"
        },
        {
          "indexed": false,
          "internalType": "uint256",
          "name": "cancelExpiration",
          "type": "uint256"
        },
        {
          "indexed": false,
          "internalType": "uint256",
          "name": "dataVersion",
          "type": "uint256"
        },
        {
          "indexed": false,
          "internalType": "bytes",
          "name": "data",
          "type": "bytes"
        }
      ],
      "name": "OracleRequest",
      "type": "event"
    },
    {
      "anonymous": false,
      "inputs": [
        {
          "indexed": true,
          "internalType": "address",
          "name": "previousOwner",
          "type": "address"
        },
        {
          "indexed": true,
          "internalType": "address",
          "name": "newOwner",
          "type": "address"
        }
      ],
      "name": "OwnershipTransferred",
      "type": "event"
    },
    {
      "inputs": [],
      "name": "EXPIRY_TIME",
      "outputs": [
        {
          "internalType": "uint256",
          "name": "",
          "type": "uint256"
        }
      ],
      "stateMutability": "view",
      "type": "function"
    },
    {
      "inputs": [
        {
          "internalType": "bytes32",
          "name": "_requestId",
          "type": "bytes32"
        },
        {
          "internalType": "uint256",
          "name": "_payment",
          "type": "uint256"
        },
        {
          "internalType": "bytes4",
          "name": "_callbackFunc",
          "type": "bytes4"
        },
        {
          "internalType": "uint256",
          "name": "_expiration",
          "type": "uint256"
        }
      ],
      "name": "cancelOracleRequest",
      "outputs": [],
      "stateMutability": "nonpayable",
      "type": "function"
    },
    {
      "inputs": [
        {
          "internalType": "bytes32",
          "name": "_requestId",
          "type": "bytes32"
        },
        {
          "internalType": "uint256",
          "name": "_payment",
          "type": "uint256"
        },
        {
          "internalType": "address",
          "name": "_callbackAddress",
          "type": "address"
        },
        {
          "internalType": "bytes4",
          "name": "_callbackFunctionId",
          "type": "bytes4"
        },
        {
          "internalType": "uint256",
          "name": "_expiration",
          "type": "uint256"
        },
        {
          "internalType": "bytes32",
          "name": "_data",
          "type": "bytes32"
        }
      ],
      "name": "fulfillOracleRequest",
      "outputs": [
        {
          "internalType": "bool",
          "name": "",
          "type": "bool"
        }
      ],
      "stateMutability": "nonpayable",
      "type": "function"
    },
    {
      "inputs": [
        {
          "internalType": "address",
          "name": "_node",
          "type": "address"
        }
      ],
      "name": "getAuthorizationStatus",
      "outputs": [
        {
          "internalType": "bool",
          "name": "",
          "type": "bool"
        }
      ],
      "stateMutability": "view",
      "type": "function"
    },
    {
      "inputs": [],
      "name": "getChainlinkToken",
      "outputs": [
        {
          "internalType": "address",
          "name": "",
          "type": "address"
        }
      ],
      "stateMutability": "view",
      "type": "function"
    },
    {
      "inputs": [],
      "name": "isOwner",
      "outputs": [
        {
          "internalType": "bool",
          "name": "",
          "type": "bool"
        }
      ],
      "stateMutability": "view",
      "type": "function"
    },
    {
      "inputs": [
        {
          "internalType": "address",
          "name": "_sender",
          "type": "address"
        },
        {
          "internalType": "uint256",
          "name": "_amount",
          "type": "uint256"
        },
        {
          "internalType": "bytes",
          "name": "_data",
          "type": "bytes"
        }
      ],
      "name": "onTokenTransfer",
      "outputs": [],
      "stateMutability": "nonpayable",
      "type": "function"
    },
    {
      "inputs": [
        {
          "internalType": "address",
          "name": "_sender",
          "type": "address"
        },
        {
          "internalType": "uint256",
          "name": "_payment",
          "type": "uint256"
        },
        {
          "internalType": "bytes32",
          "name": "_specId",
          "type": "bytes32"
        },
        {
          "internalType": "address",
          "name": "_callbackAddress",
          "type": "address"
        },
        {
          "internalType": "bytes4",
          "name": "_callbackFunctionId",
          "type": "bytes4"
        },
        {
          "internalType": "uint256",
          "name": "_nonce",
          "type": "uint256"
        },
        {
          "internalType": "uint256",
          "name": "_dataVersion",
          "type": "uint256"
        },
        {
          "internalType": "bytes",
          "name": "_data",
          "type": "bytes"
        }
      ],
      "name": "oracleRequest",
      "outputs": [],
      "stateMutability": "nonpayable",
      "type": "function"
    },
    {
      "inputs": [],
      "name": "owner",
      "outputs": [
        {
          "internalType": "address",
          "name": "",
          "type": "address"
        }
      ],
      "stateMutability": "view",
      "type": "function"
    },
    {
      "inputs": [
        {
          "internalType": "address",
          "name": "_node",
          "type": "address"
        },
        {
          "internalType": "bool",
          "name": "_allowed",
          "type": "bool"
        }
      ],
      "name": "setFulfillmentPermission",
      "outputs": [],
      "stateMutability": "nonpayable",
      "type": "function"
    },
    {
      "inputs": [
        {
          "internalType": "address",
          "name": "newOwner",
          "type": "address"
        }
      ],
      "name": "transferOwnership",
      "outputs": [],
      "stateMutability": "nonpayable",
      "type": "function"
    },
    {
      "inputs": [],
      "name": "withdraw",
      "outputs": [],
      "stateMutability": "nonpayable",
      "type": "function"
    },
    {
      "inputs": [
        {
          "internalType": "address",
          "name": "_recipient",
          "type": "address"
        },
        {
          "internalType": "uint256",
          "name": "_amount",
          "type": "uint256"
        }
      ],
      "name": "withdraw",
      "outputs": [],
      "stateMutability": "nonpayable",
      "type": "function"
    },
    {
      "inputs": [],
      "name": "withdrawable",
      "outputs": [
        {
          "internalType": "uint256",
          "name": "",
          "type": "uint256"
        }
      ],
      "stateMutability": "view",
      "type": "function"
    }
  ],
  "bytecode": "0x6080604052600160045534801561001557600080fd5b506040516113d63803806113d68339818101604052602081101561003857600080fd5b5051600080546001600160a01b031916331780825560405183926001600160a01b039290921691907f8be0079c531659141344cd1fd0a4f28419497f9722a3daafe3b4186f6b6457e0908290a3600180546001600160a01b0319166001600160a01b039290921691909117905550611321806100b56000396000f3fe608060405234801561001057600080fd5b50600436106100ea5760003560e01c80637fcd56db1161008c578063a4c0ed3611610066578063a4c0ed36146102c9578063d3e9c31414610384578063f2fde38b146103aa578063f3fef3a3146103d0576100ea565b80637fcd56db1461028b5780638da5cb5b146102b95780638f32d59b146102c1576100ea565b80634ab0d190116100c85780634ab0d190146101ce5780634b60228214610230578063501883011461024a5780636ee4d55314610252576100ea565b8063165d35e1146100ef5780633ccfd60b14610113578063404299461461011d575b600080fd5b6100f76103fc565b604080516001600160a01b039092168252519081900360200190f35b61011b61040b565b005b61011b600480360361010081101561013457600080fd5b6001600160a01b038235811692602081013592604082013592606083013516916001600160e01b03196080820135169160a08201359160c081013591810190610100810160e082013564010000000081111561018f57600080fd5b8201836020820111156101a157600080fd5b803590602001918460018302840111640100000000831117156101c357600080fd5b509092509050610485565b61021c600480360360c08110156101e457600080fd5b508035906020810135906001600160a01b03604082013516906001600160e01b03196060820135169060808101359060a0013561075b565b604080519115158252519081900360200190f35b610238610a55565b60408051918252519081900360200190f35b610238610a5b565b61011b6004803603608081101561026857600080fd5b508035906020810135906001600160e01b03196040820135169060600135610abd565b61011b600480360360408110156102a157600080fd5b506001600160a01b0381351690602001351515610c77565b6100f7610ce9565b61021c610cf8565b61011b600480360360608110156102df57600080fd5b6001600160a01b038235169160208101359181019060608101604082013564010000000081111561030f57600080fd5b82018360208201111561032157600080fd5b8035906020019184600183028401116401000000008311171561034357600080fd5b91908080601f016020809104026020016040519081016040528093929190818152602001838380828437600092019190915250929550610d09945050505050565b61021c6004803603602081101561039a57600080fd5b50356001600160a01b0316610f36565b61011b600480360360208110156103c057600080fd5b50356001600160a01b0316610f54565b61011b600480360360408110156103e657600080fd5b506001600160a01b038135169060200135610fa7565b6001546001600160a01b031690565b610413610cf8565b610452576040805162461bcd60e51b815260206004820181905260248201526000805160206112cc833981519152604482015290519081900360640190fd5b6040514790339082156108fc029083906000818181858888f19350505050158015610481573d6000803e3d6000fd5b5050565b61048d6103fc565b6001600160a01b0316336001600160a01b0316146104e8576040805162461bcd60e51b815260206004820152601360248201527226bab9ba103ab9b2902624a725903a37b5b2b760691b604482015290519081900360640190fd5b60015486906001600160a01b038083169116141561054d576040805162461bcd60e51b815260206004820152601760248201527f43616e6e6f742063616c6c6261636b20746f204c494e4b000000000000000000604482015290519081900360640190fd5b604080516bffffffffffffffffffffffff1960608d901b16602080830191909152603480830189905283518084039091018152605490920183528151918101919091206000818152600290925291902054156105e7576040805162461bcd60e51b8152602060048201526014602482015273135d5cdd081d5cd94818481d5b9a5c5d5948125160621b604482015290519081900360640190fd5b60006105fb4261012c63ffffffff6110e816565b90508a89898360405160200180858152602001846001600160a01b03166001600160a01b031660601b8152601401836001600160e01b0319166001600160e01b0319168152600401828152602001945050505050604051602081830303815290604052805190602001206002600084815260200190815260200160002081905550897fd8d7ecc4800d25fa53ce0372f13a416d98907a7ef3d8d3bdd79cf4fe75529c658d848e8d8d878d8d8d604051808a6001600160a01b03166001600160a01b03168152602001898152602001888152602001876001600160a01b03166001600160a01b03168152602001866001600160e01b0319166001600160e01b0319168152602001858152602001848152602001806020018281038252848482818152602001925080828437600083820152604051601f909101601f19169092018290039c50909a5050505050505050505050a2505050505050505050505050565b3360009081526003602052604081205460ff1680610791575061077c610ce9565b6001600160a01b0316336001600160a01b0316145b6107cc5760405162461bcd60e51b815260040180806020018281038252602a8152602001806112a2602a913960400191505060405180910390fd5b600087815260026020526040902054879061082e576040805162461bcd60e51b815260206004820152601b60248201527f4d757374206861766520612076616c6964207265717565737449640000000000604482015290519081900360640190fd5b6040805160208082018a90526bffffffffffffffffffffffff1960608a901b16828401526001600160e01b0319881660548301526058808301889052835180840390910181526078909201835281519181019190912060008b815260029092529190205481146108e5576040805162461bcd60e51b815260206004820152601e60248201527f506172616d7320646f206e6f74206d6174636820726571756573742049440000604482015290519081900360640190fd5b6004546108f8908963ffffffff6110e816565b60045560008981526002602052604081205562061a805a1015610962576040805162461bcd60e51b815260206004820181905260248201527f4d7573742070726f7669646520636f6e73756d657220656e6f75676820676173604482015290519081900360640190fd5b60408051602481018b9052604480820187905282518083039091018152606490910182526020810180516001600160e01b03166001600160e01b03198a16178152915181516000936001600160a01b038c169392918291908083835b602083106109dd5780518252601f1990920191602091820191016109be565b6001836020036101000a0380198251168184511680821785525050505050509050019150506000604051808303816000865af19150503d8060008114610a3f576040519150601f19603f3d011682016040523d82523d6000602084013e610a44565b606091505b50909b9a5050505050505050505050565b61012c81565b6000610a65610cf8565b610aa4576040805162461bcd60e51b815260206004820181905260248201526000805160206112cc833981519152604482015290519081900360640190fd5b600454610ab890600163ffffffff61114916565b905090565b6040805160208082018690523360601b828401526001600160e01b0319851660548301526058808301859052835180840390910181526078909201835281519181019190912060008781526002909252919020548114610b64576040805162461bcd60e51b815260206004820152601e60248201527f506172616d7320646f206e6f74206d6174636820726571756573742049440000604482015290519081900360640190fd5b42821115610bb2576040805162461bcd60e51b815260206004820152601660248201527514995c5d595cdd081a5cc81b9bdd08195e1c1a5c995960521b604482015290519081900360640190fd5b6000858152600260205260408082208290555186917fa7842b9ec549398102c0d91b1b9919b2f20558aefdadf57528a95c6cd3292e9391a26001546040805163a9059cbb60e01b81523360048201526024810187905290516001600160a01b039092169163a9059cbb916044808201926020929091908290030181600087803b158015610c3e57600080fd5b505af1158015610c52573d6000803e3d6000fd5b505050506040513d6020811015610c6857600080fd5b5051610c7057fe5b5050505050565b610c7f610cf8565b610cbe576040805162461bcd60e51b815260206004820181905260248201526000805160206112cc833981519152604482015290519081900360640190fd5b6001600160a01b03919091166000908152600360205260409020805460ff1916911515919091179055565b6000546001600160a01b031690565b6000546001600160a01b0316331490565b610d116103fc565b6001600160a01b0316336001600160a01b031614610d6c576040805162461bcd60e51b815260206004820152601360248201527226bab9ba103ab9b2902624a725903a37b5b2b760691b604482015290519081900360640190fd5b8051819060441115610dbe576040805162461bcd60e51b8152602060048201526016602482015275092dcecc2d8d2c840e4cae2eacae6e840d8cadccee8d60531b604482015290519081900360640190fd5b602082015182906001600160e01b031981166320214ca360e11b14610e2a576040805162461bcd60e51b815260206004820152601e60248201527f4d757374207573652077686974656c69737465642066756e6374696f6e730000604482015290519081900360640190fd5b8560248501528460448501526000306001600160a01b0316856040518082805190602001908083835b60208310610e725780518252601f199092019160209182019101610e53565b6001836020036101000a038019825116818451168082178552505050505050905001915050600060405180830381855af49150503d8060008114610ed2576040519150601f19603f3d011682016040523d82523d6000602084013e610ed7565b606091505b5050905080610f2d576040805162461bcd60e51b815260206004820152601860248201527f556e61626c6520746f2063726561746520726571756573740000000000000000604482015290519081900360640190fd5b50505050505050565b6001600160a01b031660009081526003602052604090205460ff1690565b610f5c610cf8565b610f9b576040805162461bcd60e51b815260206004820181905260248201526000805160206112cc833981519152604482015290519081900360640190fd5b610fa4816111a6565b50565b610faf610cf8565b610fee576040805162461bcd60e51b815260206004820181905260248201526000805160206112cc833981519152604482015290519081900360640190fd5b8061100081600163ffffffff6110e816565b60045410156110405760405162461bcd60e51b815260040180806020018281038252603581526020018061126d6035913960400191505060405180910390fd5b600454611053908363ffffffff61114916565b60049081556001546040805163a9059cbb60e01b81526001600160a01b0387811694820194909452602481018690529051929091169163a9059cbb916044808201926020929091908290030181600087803b1580156110b157600080fd5b505af11580156110c5573d6000803e3d6000fd5b505050506040513d60208110156110db57600080fd5b50516110e357fe5b505050565b600082820183811015611142576040805162461bcd60e51b815260206004820152601b60248201527f536166654d6174683a206164646974696f6e206f766572666c6f770000000000604482015290519081900360640190fd5b9392505050565b6000828211156111a0576040805162461bcd60e51b815260206004820152601e60248201527f536166654d6174683a207375627472616374696f6e206f766572666c6f770000604482015290519081900360640190fd5b50900390565b6001600160a01b0381166111eb5760405162461bcd60e51b81526004018080602001828103825260268152602001806112476026913960400191505060405180910390fd5b600080546040516001600160a01b03808516939216917f8be0079c531659141344cd1fd0a4f28419497f9722a3daafe3b4186f6b6457e091a3600080546001600160a01b0319166001600160a01b039290921691909117905556fe4f776e61626c653a206e6577206f776e657220697320746865207a65726f2061646472657373416d6f756e74207265717565737465642069732067726561746572207468616e20776974686472617761626c652062616c616e63654e6f7420616e20617574686f72697a6564206e6f646520746f2066756c66696c6c2072657175657374734f776e61626c653a2063616c6c6572206973206e6f7420746865206f776e6572a264697066735822122092b8fe246bb211b99bcab90f5f77a449a181e9833f8dcf168360861f7e56814f64736f6c63430006060033",
  "linkReferences": {},
  "deployedLinkReferences": {}
}